{
  "contractName": "Ballot",
  "abi": [
    {
      "inputs": [],
      "payable": false,
      "stateMutability": "nonpayable",
      "type": "constructor"
    },
    {
      "anonymous": false,
      "inputs": [],
      "name": "ballotCreated",
      "type": "event"
    },
    {
      "anonymous": false,
      "inputs": [
        {
          "indexed": false,
          "internalType": "address",
          "name": "voter",
          "type": "address"
        }
      ],
      "name": "voteDone",
      "type": "event"
    },
    {
      "anonymous": false,
      "inputs": [],
      "name": "voteEnded",
      "type": "event"
    },
    {
      "anonymous": false,
      "inputs": [],
      "name": "voteStarted",
      "type": "event"
    },
    {
      "anonymous": false,
      "inputs": [
        {
          "indexed": false,
          "internalType": "address",
          "name": "voter",
          "type": "address"
        }
      ],
      "name": "voterAdded",
      "type": "event"
    },
    {
      "constant": true,
      "inputs": [],
      "name": "ballotOfficialAddress",
      "outputs": [
        {
          "internalType": "address",
          "name": "",
          "type": "address"
        }
      ],
      "payable": false,
      "stateMutability": "view",
      "type": "function"
    },
    {
      "constant": true,
      "inputs": [],
      "name": "ballotOfficialName",
      "outputs": [
        {
          "internalType": "string",
          "name": "",
          "type": "string"
        }
      ],
      "payable": false,
      "stateMutability": "view",
      "type": "function"
    },
    {
      "constant": true,
      "inputs": [
        {
          "internalType": "uint256",
          "name": "",
          "type": "uint256"
        }
      ],
      "name": "finalResult",
      "outputs": [
        {
          "internalType": "string",
          "name": "choice",
          "type": "string"
        },
        {
          "internalType": "uint256",
          "name": "weight",
          "type": "uint256"
        }
      ],
      "payable": false,
      "stateMutability": "view",
      "type": "function"
    },
    {
      "constant": true,
      "inputs": [],
      "name": "name",
      "outputs": [
        {
          "internalType": "string",
          "name": "",
          "type": "string"
        }
      ],
      "payable": false,
      "stateMutability": "view",
      "type": "function"
    },
    {
      "constant": true,
      "inputs": [],
      "name": "options",
      "outputs": [
        {
          "internalType": "string",
          "name": "",
          "type": "string"
        }
      ],
      "payable": false,
      "stateMutability": "view",
      "type": "function"
    },
    {
      "constant": true,
      "inputs": [],
      "name": "proposal",
      "outputs": [
        {
          "internalType": "string",
          "name": "",
          "type": "string"
        }
      ],
      "payable": false,
      "stateMutability": "view",
      "type": "function"
    },
    {
      "constant": true,
      "inputs": [],
      "name": "state",
      "outputs": [
        {
          "internalType": "enum Ballot.State",
          "name": "",
          "type": "uint8"
        }
      ],
      "payable": false,
      "stateMutability": "view",
      "type": "function"
    },
    {
      "constant": true,
      "inputs": [],
      "name": "totalChoice",
      "outputs": [
        {
          "internalType": "uint256",
          "name": "",
          "type": "uint256"
        }
      ],
      "payable": false,
      "stateMutability": "view",
      "type": "function"
    },
    {
      "constant": true,
      "inputs": [],
      "name": "totalVote",
      "outputs": [
        {
          "internalType": "uint256",
          "name": "",
          "type": "uint256"
        }
      ],
      "payable": false,
      "stateMutability": "view",
      "type": "function"
    },
    {
      "constant": true,
      "inputs": [],
      "name": "totalVoter",
      "outputs": [
        {
          "internalType": "uint256",
          "name": "",
          "type": "uint256"
        }
      ],
      "payable": false,
      "stateMutability": "view",
      "type": "function"
    },
    {
      "constant": true,
      "inputs": [
        {
          "internalType": "address",
          "name": "",
          "type": "address"
        }
      ],
      "name": "voterRegister",
      "outputs": [
        {
          "internalType": "string",
          "name": "voterName",
          "type": "string"
        },
        {
          "internalType": "address",
          "name": "voterAddress",
          "type": "address"
        },
        {
          "internalType": "bool",
          "name": "voted",
          "type": "bool"
        },
        {
          "internalType": "uint256",
          "name": "equity",
          "type": "uint256"
        },
        {
          "internalType": "string",
          "name": "choice",
          "type": "string"
        }
      ],
      "payable": false,
      "stateMutability": "view",
      "type": "function"
    },
    {
      "constant": true,
      "inputs": [
        {
          "internalType": "uint256",
          "name": "",
          "type": "uint256"
        }
      ],
      "name": "voterRegisterArray",
      "outputs": [
        {
          "internalType": "string",
          "name": "voterName",
          "type": "string"
        },
        {
          "internalType": "address",
          "name": "voterAddress",
          "type": "address"
        },
        {
          "internalType": "bool",
          "name": "voted",
          "type": "bool"
        },
        {
          "internalType": "uint256",
          "name": "equity",
          "type": "uint256"
        },
        {
          "internalType": "string",
          "name": "choice",
          "type": "string"
        }
      ],
      "payable": false,
      "stateMutability": "view",
      "type": "function"
    },
    {
      "constant": false,
      "inputs": [
        {
          "internalType": "string",
          "name": "_ballotOfficialName",
          "type": "string"
        },
        {
          "internalType": "string",
          "name": "_proposal",
          "type": "string"
        },
        {
          "internalType": "string",
          "name": "_options",
          "type": "string"
        }
      ],
      "name": "createBallot",
      "outputs": [],
      "payable": false,
      "stateMutability": "nonpayable",
      "type": "function"
    },
    {
      "constant": false,
      "inputs": [
        {
          "internalType": "address",
          "name": "_voterAddress",
          "type": "address"
        },
        {
          "internalType": "string",
          "name": "_voterName",
          "type": "string"
        },
        {
          "internalType": "uint256",
          "name": "_equity",
          "type": "uint256"
        }
      ],
      "name": "addVoter",
      "outputs": [],
      "payable": false,
      "stateMutability": "nonpayable",
      "type": "function"
    },
    {
      "constant": false,
      "inputs": [],
      "name": "startVote",
      "outputs": [],
      "payable": false,
      "stateMutability": "nonpayable",
      "type": "function"
    },
    {
      "constant": false,
      "inputs": [
        {
          "internalType": "string",
          "name": "_choice",
          "type": "string"
        }
      ],
      "name": "doVote",
      "outputs": [
        {
          "internalType": "bool",
          "name": "voted",
          "type": "bool"
        }
      ],
      "payable": false,
      "stateMutability": "nonpayable",
      "type": "function"
    },
    {
      "constant": false,
      "inputs": [],
      "name": "endVote",
      "outputs": [],
      "payable": false,
      "stateMutability": "nonpayable",
      "type": "function"
    }
  ],
  "bytecode": "0x60806040526000600155600060025560006003553480156200002057600080fd5b506040518060400160405280601681526020017f576569676874656420566f74696e672053797374656d00000000000000000000815250600090805190602001906200006e92919062000075565b5062000124565b828054600181600116156101000203166002900490600052602060002090601f016020900481019282601f10620000b857805160ff1916838001178555620000e9565b82800160010185558215620000e9579182015b82811115620000e8578251825591602001919060010190620000cb565b5b509050620000f89190620000fc565b5090565b6200012191905b808211156200011d57600081600090555060010162000103565b5090565b90565b611f3180620001346000396000f3fe608060405234801561001057600080fd5b506004361061010b5760003560e01c8063753ec103116100a2578063af15408711610071578063af1540871461029b578063b9223946146102cf578063c19d93fb146102d9578063de975d18146102f7578063f1cea4c7146103155761010b565b8063753ec1031461022557806379f983f01461024357806390949747146102615780639b082c881461027f5761010b565b806346f7374d116100de57806346f7374d146101995780634c0a6af0146101c95780635275ac46146101d35780636332abc9146102075761010b565b806304a37f091461011057806306fdde03146101415780631069143a1461015f57806344b3ac031461017d575b600080fd5b61012a60048036036101259190810190611abb565b610333565b604051610138929190611ce7565b60405180910390f35b6101496103fc565b6040516101569190611c64565b60405180910390f35b61016761049a565b6040516101749190611c64565b60405180910390f35b6101976004803603610192919081019061197c565b610538565b005b6101b360048036036101ae91908101906119e3565b61097b565b6040516101c09190611c2e565b60405180910390f35b6101d1610dc6565b005b6101ed60048036036101e89190810190611abb565b610ea6565b6040516101fe959493929190611c86565b60405180910390f35b61020f611046565b60405161021c9190611d17565b60405180910390f35b61022d61104c565b60405161023a9190611c64565b60405180910390f35b61024b6110ea565b6040516102589190611d17565b60405180910390f35b6102696110f0565b6040516102769190611bf8565b60405180910390f35b61029960048036036102949190810190611a24565b611116565b005b6102b560048036036102b09190810190611953565b6111f9565b6040516102c6959493929190611c86565b60405180910390f35b6102d761138c565b005b6102e161146c565b6040516102ee9190611c49565b60405180910390f35b6102ff61147f565b60405161030c9190611c64565b60405180910390f35b61031d61151d565b60405161032a9190611d17565b60405180910390f35b6009818154811061034057fe5b9060005260206000209060020201600091509050806000018054600181600116156101000203166002900480601f0160208091040260200160405190810160405280929190818152602001828054600181600116156101000203166002900480156103ec5780601f106103c1576101008083540402835291602001916103ec565b820191906000526020600020905b8154815290600101906020018083116103cf57829003601f168201915b5050505050908060010154905082565b60008054600181600116156101000203166002900480601f0160208091040260200160405190810160405280929190818152602001828054600181600116156101000203166002900480156104925780601f1061046757610100808354040283529160200191610492565b820191906000526020600020905b81548152906001019060200180831161047557829003601f168201915b505050505081565b60078054600181600116156101000203166002900480601f0160208091040260200160405190810160405280929190818152602001828054600181600116156101000203166002900480156105305780601f1061050557610100808354040283529160200191610530565b820191906000526020600020905b81548152906001019060200180831161051357829003601f168201915b505050505081565b600080600281111561054657fe5b600d60009054906101000a900460ff16600281111561056157fe5b1461056b57600080fd5b600460009054906101000a900473ffffffffffffffffffffffffffffffffffffffff1673ffffffffffffffffffffffffffffffffffffffff163373ffffffffffffffffffffffffffffffffffffffff16146105c557600080fd5b6105cd6115cf565b83816000018190525060008160400190151590811515815250508281606001818152505084816020019073ffffffffffffffffffffffffffffffffffffffff16908173ffffffffffffffffffffffffffffffffffffffff16815250506000151581604001511515141561067d576040518060400160405280600b81526020017f4e6f7420446563696465640000000000000000000000000000000000000000008152508160800181905250610761565b600b60008673ffffffffffffffffffffffffffffffffffffffff1673ffffffffffffffffffffffffffffffffffffffff1681526020019081526020016000206003018054600181600116156101000203166002900480601f0160208091040260200160405190810160405280929190818152602001828054600181600116156101000203166002900480156107535780601f1061072857610100808354040283529160200191610753565b820191906000526020600020905b81548152906001019060200180831161073657829003601f168201915b505050505081608001819052505b80600b60008773ffffffffffffffffffffffffffffffffffffffff1673ffffffffffffffffffffffffffffffffffffffff16815260200190815260200160002060008201518160000190805190602001906107bd929190611616565b5060208201518160010160006101000a81548173ffffffffffffffffffffffffffffffffffffffff021916908373ffffffffffffffffffffffffffffffffffffffff16021790555060408201518160010160146101000a81548160ff02191690831515021790555060608201518160020155608082015181600301908051906020019061084b929190611616565b50905050600160008154809291906001019190505550600c819080600181540180825580915050906001820390600052602060002090600402016000909192909190915060008201518160000190805190602001906108ab929190611616565b5060208201518160010160006101000a81548173ffffffffffffffffffffffffffffffffffffffff021916908373ffffffffffffffffffffffffffffffffffffffff16021790555060408201518160010160146101000a81548160ff021916908315150217905550606082015181600201556080820151816003019080519060200190610939929190611616565b505050507fb9e5f9042e6c6eb94817f660cfa81afea9585e59d72bfc3348a2305cbd33e1338560405161096c9190611bf8565b60405180910390a15050505050565b6000600180600281111561098b57fe5b600d60009054906101000a900460ff1660028111156109a657fe5b146109b057600080fd5b60008090506000600b60003373ffffffffffffffffffffffffffffffffffffffff1673ffffffffffffffffffffffffffffffffffffffff16815260200190815260200160002060000180546001816001161561010002031660029004905014158015610a695750600b60003373ffffffffffffffffffffffffffffffffffffffff1673ffffffffffffffffffffffffffffffffffffffff16815260200190815260200160002060010160149054906101000a900460ff16155b15610d85576001600b60003373ffffffffffffffffffffffffffffffffffffffff1673ffffffffffffffffffffffffffffffffffffffff16815260200190815260200160002060010160146101000a81548160ff02191690831515021790555083600b60003373ffffffffffffffffffffffffffffffffffffffff1673ffffffffffffffffffffffffffffffffffffffff1681526020019081526020016000206003019080519060200190610b1f929190611696565b5060005b600c80549050811015610c1a573373ffffffffffffffffffffffffffffffffffffffff16600c8281548110610b5457fe5b906000526020600020906004020160010160009054906101000a900473ffffffffffffffffffffffffffffffffffffffff1673ffffffffffffffffffffffffffffffffffffffff161415610c0d576001600c8281548110610bb157fe5b906000526020600020906004020160010160146101000a81548160ff02191690831515021790555084600c8281548110610be757fe5b90600052602060002090600402016003019080519060200190610c0b929190611696565b505b8080600101915050610b23565b50610c23611716565b33816000019073ffffffffffffffffffffffffffffffffffffffff16908173ffffffffffffffffffffffffffffffffffffffff1681525050848160200181905250600b60003373ffffffffffffffffffffffffffffffffffffffff1673ffffffffffffffffffffffffffffffffffffffff16815260200190815260200160002060020154816040018181525050610ce68160200151826040015160088460200151604051610cd19190611bca565b90815260200160405180910390205401611523565b80600a6000600254815260200190815260200160002060008201518160000160006101000a81548173ffffffffffffffffffffffffffffffffffffffff021916908373ffffffffffffffffffffffffffffffffffffffff1602179055506020820151816001019080519060200190610d5f929190611616565b506040820151816002015590505060026000815480929190600101919050555060019150505b7f55c65cf9526efdf6c2252fe9757889dbd93e10172cad0f2edb1df619c88dbf7d33604051610db49190611c13565b60405180910390a18092505050919050565b6000806002811115610dd457fe5b600d60009054906101000a900460ff166002811115610def57fe5b14610df957600080fd5b600460009054906101000a900473ffffffffffffffffffffffffffffffffffffffff1673ffffffffffffffffffffffffffffffffffffffff163373ffffffffffffffffffffffffffffffffffffffff1614610e5357600080fd5b6001600d60006101000a81548160ff02191690836002811115610e7257fe5b02179055507fd0dc01800a369fef30d3fced5275b8b916549867622e79efca5245c479fda4ea60405160405180910390a150565b600c8181548110610eb357fe5b9060005260206000209060040201600091509050806000018054600181600116156101000203166002900480601f016020809104026020016040519081016040528092919081815260200182805460018160011615610100020316600290048015610f5f5780601f10610f3457610100808354040283529160200191610f5f565b820191906000526020600020905b815481529060010190602001808311610f4257829003601f168201915b5050505050908060010160009054906101000a900473ffffffffffffffffffffffffffffffffffffffff16908060010160149054906101000a900460ff1690806002015490806003018054600181600116156101000203166002900480601f01602080910402602001604051908101604052809291908181526020018280546001816001161561010002031660029004801561103c5780601f106110115761010080835404028352916020019161103c565b820191906000526020600020905b81548152906001019060200180831161101f57829003601f168201915b5050505050905085565b60015481565b60068054600181600116156101000203166002900480601f0160208091040260200160405190810160405280929190818152602001828054600181600116156101000203166002900480156110e25780601f106110b7576101008083540402835291602001916110e2565b820191906000526020600020905b8154815290600101906020018083116110c557829003601f168201915b505050505081565b60035481565b600460009054906101000a900473ffffffffffffffffffffffffffffffffffffffff1681565b33600460006101000a81548173ffffffffffffffffffffffffffffffffffffffff021916908373ffffffffffffffffffffffffffffffffffffffff160217905550826005908051906020019061116d929190611696565b508160069080519060200190611184929190611696565b50806007908051906020019061119b929190611696565b50600060018190555060006002819055506000600381905550600c60006111c2919061174d565b600960006111d09190611771565b6000600d60006101000a81548160ff021916908360028111156111ef57fe5b0217905550505050565b600b602052806000526040600020600091509050806000018054600181600116156101000203166002900480601f0160208091040260200160405190810160405280929190818152602001828054600181600116156101000203166002900480156112a55780601f1061127a576101008083540402835291602001916112a5565b820191906000526020600020905b81548152906001019060200180831161128857829003601f168201915b5050505050908060010160009054906101000a900473ffffffffffffffffffffffffffffffffffffffff16908060010160149054906101000a900460ff1690806002015490806003018054600181600116156101000203166002900480601f0160208091040260200160405190810160405280929190818152602001828054600181600116156101000203166002900480156113825780601f1061135757610100808354040283529160200191611382565b820191906000526020600020905b81548152906001019060200180831161136557829003601f168201915b5050505050905085565b600180600281111561139a57fe5b600d60009054906101000a900460ff1660028111156113b557fe5b146113bf57600080fd5b600460009054906101000a900473ffffffffffffffffffffffffffffffffffffffff1673ffffffffffffffffffffffffffffffffffffffff163373ffffffffffffffffffffffffffffffffffffffff161461141957600080fd5b6002600d60006101000a81548160ff0219169083600281111561143857fe5b02179055507f0deeca6c5a4a24936ed5053feb119562545a36119b158ecd0bb902a689be2d6660405160405180910390a150565b600d60009054906101000a900460ff1681565b60058054600181600116156101000203166002900480601f0160208091040260200160405190810160405280929190818152602001828054600181600116156101000203166002900480156115155780601f106114ea57610100808354040283529160200191611515565b820191906000526020600020905b8154815290600101906020018083116114f857829003601f168201915b505050505081565b60025481565b806008836040516115349190611be1565b90815260200160405180910390208190555061154e611795565b828160000181905250818160200181815250506009819080600181540180825580915050906001820390600052602060002090600202016000909192909190915060008201518160000190805190602001906115ab929190611616565b50602082015181600101555050506001600360008282540192505081905550505050565b6040518060a0016040528060608152602001600073ffffffffffffffffffffffffffffffffffffffff16815260200160001515815260200160008152602001606081525090565b828054600181600116156101000203166002900490600052602060002090601f016020900481019282601f1061165757805160ff1916838001178555611685565b82800160010185558215611685579182015b82811115611684578251825591602001919060010190611669565b5b50905061169291906117af565b5090565b828054600181600116156101000203166002900490600052602060002090601f016020900481019282601f106116d757805160ff1916838001178555611705565b82800160010185558215611705579182015b828111156117045782518255916020019190600101906116e9565b5b50905061171291906117af565b5090565b6040518060600160405280600073ffffffffffffffffffffffffffffffffffffffff16815260200160608152602001600081525090565b508054600082556004029060005260206000209081019061176e91906117d4565b50565b50805460008255600202906000526020600020908101906117929190611856565b50565b604051806040016040528060608152602001600081525090565b6117d191905b808211156117cd5760008160009055506001016117b5565b5090565b90565b61185391905b8082111561184f57600080820160006117f3919061188d565b6001820160006101000a81549073ffffffffffffffffffffffffffffffffffffffff02191690556001820160146101000a81549060ff02191690556002820160009055600382016000611846919061188d565b506004016117da565b5090565b90565b61188a91905b808211156118865760008082016000611875919061188d565b60018201600090555060020161185c565b5090565b90565b50805460018160011615610100020316600290046000825580601f106118b357506118d2565b601f0160209004906000526020600020908101906118d191906117af565b5b50565b6000813590506118e481611ec0565b92915050565b600082601f8301126118fb57600080fd5b813561190e61190982611d5f565b611d32565b9150808252602083016020830185838301111561192a57600080fd5b611935838284611e60565b50505092915050565b60008135905061194d81611ed7565b92915050565b60006020828403121561196557600080fd5b6000611973848285016118d5565b91505092915050565b60008060006060848603121561199157600080fd5b600061199f868287016118d5565b935050602084013567ffffffffffffffff8111156119bc57600080fd5b6119c8868287016118ea565b92505060406119d98682870161193e565b9150509250925092565b6000602082840312156119f557600080fd5b600082013567ffffffffffffffff811115611a0f57600080fd5b611a1b848285016118ea565b91505092915050565b600080600060608486031215611a3957600080fd5b600084013567ffffffffffffffff811115611a5357600080fd5b611a5f868287016118ea565b935050602084013567ffffffffffffffff811115611a7c57600080fd5b611a88868287016118ea565b925050604084013567ffffffffffffffff811115611aa557600080fd5b611ab1868287016118ea565b9150509250925092565b600060208284031215611acd57600080fd5b6000611adb8482850161193e565b91505092915050565b611aed81611e18565b82525050565b611afc81611dbd565b82525050565b611b0b81611dcf565b82525050565b611b1a81611e2a565b82525050565b6000611b2b82611d96565b611b358185611db2565b9350611b45818560208601611e6f565b80840191505092915050565b6000611b5c82611d8b565b611b668185611da1565b9350611b76818560208601611e6f565b611b7f81611ea2565b840191505092915050565b6000611b9582611d8b565b611b9f8185611db2565b9350611baf818560208601611e6f565b80840191505092915050565b611bc481611e0e565b82525050565b6000611bd68284611b8a565b915081905092915050565b6000611bed8284611b20565b915081905092915050565b6000602082019050611c0d6000830184611af3565b92915050565b6000602082019050611c286000830184611ae4565b92915050565b6000602082019050611c436000830184611b02565b92915050565b6000602082019050611c5e6000830184611b11565b92915050565b60006020820190508181036000830152611c7e8184611b51565b905092915050565b600060a0820190508181036000830152611ca08188611b51565b9050611caf6020830187611af3565b611cbc6040830186611b02565b611cc96060830185611bbb565b8181036080830152611cdb8184611b51565b90509695505050505050565b60006040820190508181036000830152611d018185611b51565b9050611d106020830184611bbb565b9392505050565b6000602082019050611d2c6000830184611bbb565b92915050565b6000604051905081810181811067ffffffffffffffff82111715611d5557600080fd5b8060405250919050565b600067ffffffffffffffff821115611d7657600080fd5b601f19601f8301169050602081019050919050565b600081519050919050565b600081519050919050565b600082825260208201905092915050565b600081905092915050565b6000611dc882611dee565b9050919050565b60008115159050919050565b6000819050611de982611eb3565b919050565b600073ffffffffffffffffffffffffffffffffffffffff82169050919050565b6000819050919050565b6000611e2382611e3c565b9050919050565b6000611e3582611ddb565b9050919050565b6000611e4782611e4e565b9050919050565b6000611e5982611dee565b9050919050565b82818337600083830152505050565b60005b83811015611e8d578082015181840152602081019050611e72565b83811115611e9c576000848401525b50505050565b6000601f19601f8301169050919050565b60038110611ebd57fe5b50565b611ec981611dbd565b8114611ed457600080fd5b50565b611ee081611e0e565b8114611eeb57600080fd5b5056fea365627a7a7231582023dc67460070c67bed9643cd7c9345a8c753d6b4eb67187f3cf26d80dd0027646c6578706572696d656e74616cf564736f6c63430005100040",
  "source": "pragma solidity ^0.5.0;\r\npragma experimental ABIEncoderV2;\r\n\r\ncontract Ballot {\r\n\r\n    struct vote{\r\n        address voterAddress;\r\n        string choice; // the index of the choice\r\n        uint weight; // weight of the vote\r\n    }\r\n    \r\n    struct voter{\r\n        string voterName;\r\n        address voterAddress;\r\n        bool voted;\r\n        uint equity; // equity of the voter\r\n        string choice;\r\n    }\r\n\r\n    struct voteResult {\r\n        string choice;\r\n        uint weight;\r\n    }\r\n\r\n    string public name;\r\n    uint public totalVoter = 0;\r\n    uint public totalVote = 0;\r\n    uint public totalChoice = 0;  //number of choices chosen by the voters\r\n    address public ballotOfficialAddress;      \r\n    string public ballotOfficialName;\r\n    string public proposal;\r\n    string public options; // options for one voting event\r\n    \r\n\r\n    // mapping(choice => weight)\r\n    mapping(string => uint) private _countResult;\r\n\r\n    // final result\r\n    voteResult[] public finalResult;\r\n    // _key: choice, _value: weight\r\n    function addToMapping(string memory _key, uint _value) internal {\r\n        _countResult[_key] = _value;\r\n        voteResult memory vr;\r\n        vr.choice = _key;\r\n        vr.weight = _value;\r\n        finalResult.push(vr);\r\n        totalChoice += 1;\r\n    }\r\n    \r\n    mapping(uint => vote) private votes;\r\n    mapping(address => voter) public voterRegister;\r\n    voter[] public voterRegisterArray;\r\n    \r\n    enum State { Created, Voting, Ended }\r\n\tState public state;\r\n\t\r\n\t//creates a new ballot contract\r\n\tconstructor() public {\r\n        name = \"Weighted Voting System\";\r\n    }\r\n    \r\n    \r\n\tmodifier condition(bool _condition) {\r\n\t\trequire(_condition);\r\n\t\t_;\r\n\t}\r\n\r\n\tmodifier onlyOfficial() {\r\n\t\trequire(msg.sender ==ballotOfficialAddress);\r\n\t\t_;\r\n\t}\r\n\r\n\tmodifier inState(State _state) {\r\n\t\trequire(state == _state);\r\n\t\t_;\r\n\t}\r\n\t\r\n\tstring[] arr;\r\n\tevent ballotCreated();\r\n    event voterAdded(address voter);\r\n    event voteStarted();\r\n    event voteEnded();\r\n    event voteDone(address voter);\r\n    \r\n    // create ballotOfficialAddress\r\n    function createBallot(string memory _ballotOfficialName, string memory _proposal, string memory _options) public{\r\n        ballotOfficialAddress = msg.sender;\r\n        ballotOfficialName = _ballotOfficialName;\r\n        proposal = _proposal;\r\n        options = _options;\r\n        totalVoter = 0;\r\n        totalVote = 0;\r\n        totalChoice = 0;\r\n        delete voterRegisterArray;\r\n        delete finalResult;\r\n        state = State.Created;\r\n        // emit ballotCreated();\r\n    }\r\n    \r\n    //add voter\r\n    function addVoter(address _voterAddress, string memory _voterName, uint _equity)\r\n        public\r\n        inState(State.Created)\r\n        onlyOfficial\r\n    {\r\n        voter memory v;\r\n        v.voterName = _voterName;\r\n        v.voted = false;\r\n        v.equity = _equity;\r\n        v.voterAddress = _voterAddress;\r\n        if(v.voted == false){\r\n            v.choice = 'Not Decided';\r\n        }else{\r\n            v.choice = voterRegister[_voterAddress].choice;\r\n        }\r\n        voterRegister[_voterAddress] = v;\r\n        totalVoter++;\r\n        voterRegisterArray.push(v);\r\n        emit voterAdded(_voterAddress);\r\n    }\r\n\r\n    //declare voting starts now\r\n    function startVote()\r\n        public\r\n        inState(State.Created)\r\n        onlyOfficial\r\n    {\r\n        state = State.Voting;     \r\n        emit voteStarted();\r\n    }\r\n\r\n    // vote from different options\r\n    function doVote(string memory _choice)\r\n        public\r\n        inState(State.Voting)\r\n        returns (bool voted)\r\n    {\r\n        bool found = false;\r\n        \r\n        if (bytes(voterRegister[msg.sender].voterName).length != 0 \r\n        && !voterRegister[msg.sender].voted){\r\n            voterRegister[msg.sender].voted = true;\r\n            voterRegister[msg.sender].choice = _choice;\r\n            for(uint i; i < voterRegisterArray.length; i++) {\r\n                if (voterRegisterArray[i].voterAddress == msg.sender) {\r\n                    voterRegisterArray[i].voted = true;\r\n                    voterRegisterArray[i].choice = _choice;\r\n                }\r\n            }\r\n            vote memory v;\r\n            v.voterAddress = msg.sender;\r\n            v.choice = _choice;\r\n            v.weight = voterRegister[msg.sender].equity;\r\n            // calculate weighted result for current vote\r\n            addToMapping(v.choice, _countResult[v.choice] + v.weight);\r\n            // _countResult[v.choice] += v.weight;  \r\n            votes[totalVote] = v;\r\n            totalVote++;\r\n            found = true;\r\n\r\n        }\r\n        emit voteDone(msg.sender);\r\n        return found;\r\n    }\r\n    //end votes\r\n    function endVote()\r\n        public\r\n        inState(State.Voting)\r\n        onlyOfficial\r\n    {\r\n        state = State.Ended;\r\n        // //move result from private _countResult to public finalResult\r\n        // for(uint i; i < result.length; i++) {\r\n        //     finalResult[result[i]] = _countResult[result[i]];\r\n        // }\r\n        emit voteEnded();\r\n    }\r\n}",
  "sourcePath": "/Users/Alvin/Desktop/INFO7500-WeightedVotingSystem/DecentralizedWeightedVotingSystem/src/contracts/Ballot.sol",
  "compiler": {
    "name": "solc",
    "version": "0.5.16+commit.9c3226ce.Emscripten.clang"
  },
  "schemaVersion": "3.0.23",
  "updatedAt": "2020-04-22T15:15:11.749Z",
  "networkType": "ethereum",
  "devdoc": {
    "methods": {}
  },
  "userdoc": {
    "methods": {}
  }
}